:100000000C9462000C948A000C948A000C948A0070
:100010000C948A000C948A000C948A000C948A0038
:100020000C948A000C948A000C948A000C948A0028
:100030000C948A000C948A000C948A000C948A0018
:100040000C9410020C948A000C9480020C945A02B6
:100050000C948A000C948A000C948A000C948A00F8
:100060000C948A000C948A000000000023002600F3
:10007000290000000008000201000003040700003E
:1000800000000000000000000000250028002B00F8
:1000900000000000240027002A00040404040404D3
:1000A0000404020202020202030303030303010227
:1000B00004081020408001020408102001020408F6
:1000C0001020680311241FBECFEFD8E0DEBFCDBFE4
:1000D00011E0A0E0B1E0EAE3F7E002C005900D9284
:1000E000A231B107D9F721E0A2E1B1E001C01D9230
:1000F000AC3BB207E1F710E0C2E6D0E004C02197C4
:10010000FE010E949503C136D107C9F70E94B202D1
:100110000C949B030C940000CF93DF9390E0FC01C0
:10012000E255FF4F249186569F4FFC01849188230E
:10013000C1F090E0880F991FFC01E057FF4FC59177
:10014000D491FC01EA57FF4FA591B4919FB7F89461
:100150008881E22FE0958E2388838C91E823EC93AD
:100160009FBFDF91CF910895AF92BF92CF92DF9260
:10017000EF92FF920F931F93CF93DF936C017B015C
:100180008B01040F151FEB015E01AE18BF08C017ED
:10019000D10759F06991D601ED91FC910190F08160
:1001A000E02DC6010995892B79F7C501DF91CF9123
:1001B0001F910F91FF90EF90DF90CF90BF90AF9085
:1001C0000895FC01538D448D252F30E0842F90E05D
:1001D000821B930B541710F0CF9608950197089542
:1001E000FC01918D828D981761F0A28DAE0FBF2F0B
:1001F000B11D5D968C91928D9F5F9F73928F90E061
:1002000008958FEF9FEF0895FC01918D828D9817CF
:1002100031F0828DE80FF11D858D90E008958FEF0C
:100220009FEF0895FC01918D228D892F90E0805CD5
:100230009F4F821B91098F73992708958FE191E059
:100240000E94120121E0892B09F420E0822F0895F9
:1002500080E090E0892B29F00E941E0181110C940E
:1002600000000895FC01A48DA80FB92FB11DA35A59
:10027000BF4F2C91848D90E001968F739927848FC6
:10028000A689B7892C93A089B1898C9183708064E9
:100290008C93938D848D981306C00288F389E02D8A
:1002A00080818F7D80830895EF92FF920F931F933B
:1002B000CF93DF93EC0181E0888F9B8D8C8D981319
:1002C0001AC0E889F989808185FF15C09FB7F89425
:1002D000EE89FF896083E889F98980818370806471
:1002E00080839FBF81E090E0DF91CF911F910F91BC
:1002F000FF90EF900895F62E0B8D10E00F5F1F4FCB
:100300000F731127E02E8C8D8E110CC00FB607FCD9
:10031000FACFE889F989808185FFF5CFCE010E9467
:100320003201F1CFEB8DEC0FFD2FF11DE35AFF4FA2
:10033000F0829FB7F8940B8FEA89FB8980818062F5
:10034000CFCF682F8FE191E00C945401CF93DF93CE
:10035000EC01888D8823B9F0AA89BB89E889F989DD
:100360008C9185FD03C0808186FD0DC00FB607FC12
:10037000F7CF8C9185FFF2CF808185FFEDCFCE0145
:100380000E943201E9CFDF91CF91089590E0FC0106
:10039000EE58FF4F2491FC01E255FF4F3491FC01D0
:1003A000E656FF4FE491EE23C1F1222339F02330CA
:1003B000E9F090F4213001F1223011F1F0E0EE0F7C
:1003C000FF1FE859FF4FA591B491EC91E32381E021
:1003D00090E029F580E008952730A9F02830C9F091
:1003E000243061F7809180008F7D03C08091800070
:1003F0008F7780938000E2CF84B58F7784BDDECF86
:1004000084B58F7DFBCF8091B0008F778093B00053
:10041000D5CF8091B0008F7DF9CF80E090E0089536
:100420001F920F920FB60F9211242F933F938F9329
:100430009F93AF93BF9380911B0190911C01A0915A
:100440001D01B0911E0130911A0123E0230F2D37B9
:1004500058F50196A11DB11D20931A0180931B012F
:1004600090931C01A0931D01B0931E018091160171
:1004700090911701A0911801B09119010196A11D49
:10048000B11D8093160190931701A0931801B093AA
:100490001901BF91AF919F918F913F912F910F9033
:1004A0000FBE0F901F90189526E8230F0296A11DEE
:1004B000B11DD2CF1F920F920FB60F9211242F931E
:1004C0003F934F935F936F937F938F939F93AF93DC
:1004D000BF93EF93FF938FE191E00E943201FF9170
:1004E000EF91BF91AF919F918F917F916F915F91AC
:1004F0004F913F912F910F900FBE0F901F90189525
:100500001F920F920FB60F9211242F938F939F93E8
:10051000EF93FF93E0912F01F09130018081E09102
:100520003501F091360182FD1BC090818091380128
:100530008F5F8F7320913901821741F0E09138016C
:10054000F0E0E15EFE4F958F80933801FF91EF91CF
:100550009F918F912F910F900FBE0F901F90189524
:100560008081F4CF789484B5826084BD84B5816045
:1005700084BD85B5826085BD85B5816085BD80916E
:100580006E00816080936E001092810080918100E6
:1005900082608093810080918100816080938100DE
:1005A000809180008160809380008091B1008460A0
:1005B0008093B1008091B00081608093B000809101
:1005C0007A00846080937A0080917A0082608093C0
:1005D0007A0080917A00816080937A0080917A001D
:1005E000806880937A001092C1008EE00E948C0097
:1005F0008FE00E948C0080E10E948C00E0912F012E
:10060000F091300182E08083E0912B01F0912C0188
:100610001082E0912D01F0912E018FEC80831092D9
:100620003701E0913301F091340186E08083E0915D
:100630003101F0913201808180618083E09131014C
:10064000F0913201808188608083E0913101F091E6
:100650003201808180688083E0913101F091320124
:1006600080818F7D808380E0E82E80E0F82E8EE010
:100670000E94C6018C0190931501809314018FE0B4
:100680000E94C601EC01909313018093120180E156
:100690000E94C6010130110571F481E090E00E94D2
:1006A000A101E114F10419F30E941E018823F9F25B
:1006B0000E940000DCCF219719F482E090E0EFCF98
:1006C000019719F483E090E0EACF84E090E0E7CF6F
:1006D000EFE1F1E01382128288EE93E0A0E0B0E057
:1006E00084839583A683B78384E091E0918380839C
:1006F00085EC90E09587848784EC90E097878687E7
:1007000080EC90E0918B808B81EC90E0938B828BDE
:1007100082EC90E0958B848B86EC90E0978B868BB7
:10072000118E128E138E148E0895EE0FFF1F0590FA
:0A073000F491E02D0994F894FFCF36
:10073A00000000005401B400E100A6011201F0001B
:02074A000401A8
:00000001FF
